{
  "contractName": "DerWanderer",
  "abi": [
    {
      "inputs": [],
      "stateMutability": "nonpayable",
      "type": "constructor"
    },
    {
      "anonymous": false,
      "inputs": [
        {
          "indexed": true,
          "internalType": "address",
          "name": "owner",
          "type": "address"
        },
        {
          "indexed": true,
          "internalType": "address",
          "name": "approved",
          "type": "address"
        },
        {
          "indexed": true,
          "internalType": "uint256",
          "name": "tokenId",
          "type": "uint256"
        }
      ],
      "name": "Approval",
      "type": "event"
    },
    {
      "anonymous": false,
      "inputs": [
        {
          "indexed": true,
          "internalType": "address",
          "name": "owner",
          "type": "address"
        },
        {
          "indexed": true,
          "internalType": "address",
          "name": "operator",
          "type": "address"
        },
        {
          "indexed": false,
          "internalType": "bool",
          "name": "approved",
          "type": "bool"
        }
      ],
      "name": "ApprovalForAll",
      "type": "event"
    },
    {
      "anonymous": false,
      "inputs": [
        {
          "indexed": true,
          "internalType": "address",
          "name": "from",
          "type": "address"
        },
        {
          "indexed": true,
          "internalType": "address",
          "name": "to",
          "type": "address"
        },
        {
          "indexed": true,
          "internalType": "uint256",
          "name": "tokenId",
          "type": "uint256"
        }
      ],
      "name": "Transfer",
      "type": "event"
    },
    {
      "inputs": [
        {
          "internalType": "address",
          "name": "to",
          "type": "address"
        },
        {
          "internalType": "uint256",
          "name": "tokenId",
          "type": "uint256"
        }
      ],
      "name": "approve",
      "outputs": [],
      "stateMutability": "nonpayable",
      "type": "function"
    },
    {
      "inputs": [
        {
          "internalType": "address",
          "name": "owner",
          "type": "address"
        }
      ],
      "name": "balanceOf",
      "outputs": [
        {
          "internalType": "uint256",
          "name": "",
          "type": "uint256"
        }
      ],
      "stateMutability": "view",
      "type": "function",
      "constant": true
    },
    {
      "inputs": [],
      "name": "baseURI",
      "outputs": [
        {
          "internalType": "string",
          "name": "",
          "type": "string"
        }
      ],
      "stateMutability": "view",
      "type": "function",
      "constant": true
    },
    {
      "inputs": [
        {
          "internalType": "uint256",
          "name": "tokenId",
          "type": "uint256"
        }
      ],
      "name": "getApproved",
      "outputs": [
        {
          "internalType": "address",
          "name": "",
          "type": "address"
        }
      ],
      "stateMutability": "view",
      "type": "function",
      "constant": true
    },
    {
      "inputs": [
        {
          "internalType": "address",
          "name": "owner",
          "type": "address"
        },
        {
          "internalType": "address",
          "name": "operator",
          "type": "address"
        }
      ],
      "name": "isApprovedForAll",
      "outputs": [
        {
          "internalType": "bool",
          "name": "",
          "type": "bool"
        }
      ],
      "stateMutability": "view",
      "type": "function",
      "constant": true
    },
    {
      "inputs": [],
      "name": "name",
      "outputs": [
        {
          "internalType": "string",
          "name": "",
          "type": "string"
        }
      ],
      "stateMutability": "view",
      "type": "function",
      "constant": true
    },
    {
      "inputs": [
        {
          "internalType": "uint256",
          "name": "tokenId",
          "type": "uint256"
        }
      ],
      "name": "ownerOf",
      "outputs": [
        {
          "internalType": "address",
          "name": "",
          "type": "address"
        }
      ],
      "stateMutability": "view",
      "type": "function",
      "constant": true
    },
    {
      "inputs": [
        {
          "internalType": "address",
          "name": "from",
          "type": "address"
        },
        {
          "internalType": "address",
          "name": "to",
          "type": "address"
        },
        {
          "internalType": "uint256",
          "name": "tokenId",
          "type": "uint256"
        }
      ],
      "name": "safeTransferFrom",
      "outputs": [],
      "stateMutability": "nonpayable",
      "type": "function"
    },
    {
      "inputs": [
        {
          "internalType": "address",
          "name": "from",
          "type": "address"
        },
        {
          "internalType": "address",
          "name": "to",
          "type": "address"
        },
        {
          "internalType": "uint256",
          "name": "tokenId",
          "type": "uint256"
        },
        {
          "internalType": "bytes",
          "name": "_data",
          "type": "bytes"
        }
      ],
      "name": "safeTransferFrom",
      "outputs": [],
      "stateMutability": "nonpayable",
      "type": "function"
    },
    {
      "inputs": [
        {
          "internalType": "address",
          "name": "operator",
          "type": "address"
        },
        {
          "internalType": "bool",
          "name": "approved",
          "type": "bool"
        }
      ],
      "name": "setApprovalForAll",
      "outputs": [],
      "stateMutability": "nonpayable",
      "type": "function"
    },
    {
      "inputs": [
        {
          "internalType": "bytes4",
          "name": "interfaceId",
          "type": "bytes4"
        }
      ],
      "name": "supportsInterface",
      "outputs": [
        {
          "internalType": "bool",
          "name": "",
          "type": "bool"
        }
      ],
      "stateMutability": "view",
      "type": "function",
      "constant": true
    },
    {
      "inputs": [],
      "name": "symbol",
      "outputs": [
        {
          "internalType": "string",
          "name": "",
          "type": "string"
        }
      ],
      "stateMutability": "view",
      "type": "function",
      "constant": true
    },
    {
      "inputs": [
        {
          "internalType": "uint256",
          "name": "index",
          "type": "uint256"
        }
      ],
      "name": "tokenByIndex",
      "outputs": [
        {
          "internalType": "uint256",
          "name": "",
          "type": "uint256"
        }
      ],
      "stateMutability": "view",
      "type": "function",
      "constant": true
    },
    {
      "inputs": [
        {
          "internalType": "address",
          "name": "owner",
          "type": "address"
        },
        {
          "internalType": "uint256",
          "name": "index",
          "type": "uint256"
        }
      ],
      "name": "tokenOfOwnerByIndex",
      "outputs": [
        {
          "internalType": "uint256",
          "name": "",
          "type": "uint256"
        }
      ],
      "stateMutability": "view",
      "type": "function",
      "constant": true
    },
    {
      "inputs": [
        {
          "internalType": "uint256",
          "name": "tokenId",
          "type": "uint256"
        }
      ],
      "name": "tokenURI",
      "outputs": [
        {
          "internalType": "string",
          "name": "",
          "type": "string"
        }
      ],
      "stateMutability": "view",
      "type": "function",
      "constant": true
    },
    {
      "inputs": [],
      "name": "totalSupply",
      "outputs": [
        {
          "internalType": "uint256",
          "name": "",
          "type": "uint256"
        }
      ],
      "stateMutability": "view",
      "type": "function",
      "constant": true
    },
    {
      "inputs": [
        {
          "internalType": "address",
          "name": "from",
          "type": "address"
        },
        {
          "internalType": "address",
          "name": "to",
          "type": "address"
        },
        {
          "internalType": "uint256",
          "name": "tokenId",
          "type": "uint256"
        }
      ],
      "name": "transferFrom",
      "outputs": [],
      "stateMutability": "nonpayable",
      "type": "function"
    },
    {
      "inputs": [
        {
          "internalType": "address",
          "name": "_to",
          "type": "address"
        }
      ],
      "name": "mintTo",
      "outputs": [],
      "stateMutability": "nonpayable",
      "type": "function"
    },
    {
      "inputs": [
        {
          "internalType": "address",
          "name": "_to",
          "type": "address"
        },
        {
          "internalType": "uint256",
          "name": "_tokenId",
          "type": "uint256"
        }
      ],
      "name": "mint",
      "outputs": [],
      "stateMutability": "nonpayable",
      "type": "function"
    },
    {
      "inputs": [],
      "name": "baseTokenURI",
      "outputs": [
        {
          "internalType": "string",
          "name": "",
          "type": "string"
        }
      ],
      "stateMutability": "pure",
      "type": "function",
      "constant": true
    },
    {
      "inputs": [],
      "name": "contractURI",
      "outputs": [
        {
          "internalType": "string",
          "name": "",
          "type": "string"
        }
      ],
      "stateMutability": "pure",
      "type": "function",
      "constant": true
    }
  ],
  "bytecode": "0x60806040526000600a553480156200001657600080fd5b506040518060400160405280600b81526020017f44657257616e64657265720000000000000000000000000000000000000000008152506040518060400160405280600381526020017f45544800000000000000000000000000000000000000000000000000000000008152506200009b6301ffc9a760e01b6200011d60201b60201c565b8160069080519060200190620000b392919062000226565b508060079080519060200190620000cc92919062000226565b50620000e56380ac58cd60e01b6200011d60201b60201c565b620000fd635b5e139f60e01b6200011d60201b60201c565b6200011563780e9d6360e01b6200011d60201b60201c565b5050620002d5565b63ffffffff60e01b817bffffffffffffffffffffffffffffffffffffffffffffffffffffffff19161415620001ba576040517f08c379a000000000000000000000000000000000000000000000000000000000815260040180806020018281038252601c8152602001807f4552433136353a20696e76616c696420696e746572666163652069640000000081525060200191505060405180910390fd5b6001600080837bffffffffffffffffffffffffffffffffffffffffffffffffffffffff19167bffffffffffffffffffffffffffffffffffffffffffffffffffffffff1916815260200190815260200160002060006101000a81548160ff02191690831515021790555050565b828054600181600116156101000203166002900490600052602060002090601f016020900481019282601f106200026957805160ff19168380011785556200029a565b828001600101855582156200029a579182015b82811115620002995782518255916020019190600101906200027c565b5b509050620002a99190620002ad565b5090565b620002d291905b80821115620002ce576000816000905550600101620002b4565b5090565b90565b612ca780620002e56000396000f3fe608060405234801561001057600080fd5b50600436106101375760003560e01c80636352211e116100b8578063a22cb4651161007c578063a22cb465146106dc578063b88d4fde1461072c578063c87b56dd14610831578063d547cfb7146108d8578063e8a3d4851461095b578063e985e9c5146109de57610137565b80636352211e146104cc5780636c0360eb1461053a57806370a08231146105bd578063755edd171461061557806395d89b411461065957610137565b806323b872dd116100ff57806323b872dd146102fe5780632f745c591461036c57806340c10f19146103ce57806342842e0e1461041c5780634f6ccce71461048a57610137565b806301ffc9a71461013c57806306fdde03146101a1578063081812fc14610224578063095ea7b31461029257806318160ddd146102e0575b600080fd5b6101876004803603602081101561015257600080fd5b8101908080357bffffffffffffffffffffffffffffffffffffffffffffffffffffffff19169060200190929190505050610a5a565b604051808215151515815260200191505060405180910390f35b6101a9610ac1565b6040518080602001828103825283818151815260200191508051906020019080838360005b838110156101e95780820151818401526020810190506101ce565b50505050905090810190601f1680156102165780820380516001836020036101000a031916815260200191505b509250505060405180910390f35b6102506004803603602081101561023a57600080fd5b8101908080359060200190929190505050610b63565b604051808273ffffffffffffffffffffffffffffffffffffffff1673ffffffffffffffffffffffffffffffffffffffff16815260200191505060405180910390f35b6102de600480360360408110156102a857600080fd5b81019080803573ffffffffffffffffffffffffffffffffffffffff16906020019092919080359060200190929190505050610bfe565b005b6102e8610d42565b6040518082815260200191505060405180910390f35b61036a6004803603606081101561031457600080fd5b81019080803573ffffffffffffffffffffffffffffffffffffffff169060200190929190803573ffffffffffffffffffffffffffffffffffffffff16906020019092919080359060200190929190505050610d53565b005b6103b86004803603604081101561038257600080fd5b81019080803573ffffffffffffffffffffffffffffffffffffffff16906020019092919080359060200190929190505050610dc9565b6040518082815260200191505060405180910390f35b61041a600480360360408110156103e457600080fd5b81019080803573ffffffffffffffffffffffffffffffffffffffff16906020019092919080359060200190929190505050610e24565b005b6104886004803603606081101561043257600080fd5b81019080803573ffffffffffffffffffffffffffffffffffffffff169060200190929190803573ffffffffffffffffffffffffffffffffffffffff16906020019092919080359060200190929190505050610e32565b005b6104b6600480360360208110156104a057600080fd5b8101908080359060200190929190505050610e52565b6040518082815260200191505060405180910390f35b6104f8600480360360208110156104e257600080fd5b8101908080359060200190929190505050610e75565b604051808273ffffffffffffffffffffffffffffffffffffffff1673ffffffffffffffffffffffffffffffffffffffff16815260200191505060405180910390f35b610542610eac565b6040518080602001828103825283818151815260200191508051906020019080838360005b83811015610582578082015181840152602081019050610567565b50505050905090810190601f1680156105af5780820380516001836020036101000a031916815260200191505b509250505060405180910390f35b6105ff600480360360208110156105d357600080fd5b81019080803573ffffffffffffffffffffffffffffffffffffffff169060200190929190505050610f4e565b6040518082815260200191505060405180910390f35b6106576004803603602081101561062b57600080fd5b81019080803573ffffffffffffffffffffffffffffffffffffffff169060200190929190505050611023565b005b610661611045565b6040518080602001828103825283818151815260200191508051906020019080838360005b838110156106a1578082015181840152602081019050610686565b50505050905090810190601f1680156106ce5780820380516001836020036101000a031916815260200191505b509250505060405180910390f35b61072a600480360360408110156106f257600080fd5b81019080803573ffffffffffffffffffffffffffffffffffffffff1690602001909291908035151590602001909291905050506110e7565b005b61082f6004803603608081101561074257600080fd5b81019080803573ffffffffffffffffffffffffffffffffffffffff169060200190929190803573ffffffffffffffffffffffffffffffffffffffff16906020019092919080359060200190929190803590602001906401000000008111156107a957600080fd5b8201836020820111156107bb57600080fd5b803590602001918460018302840111640100000000831117156107dd57600080fd5b91908080601f016020809104026020016040519081016040528093929190818152602001838380828437600081840152601f19601f82011690508083019250505050505050919291929050505061129f565b005b61085d6004803603602081101561084757600080fd5b8101908080359060200190929190505050611317565b6040518080602001828103825283818151815260200191508051906020019080838360005b8381101561089d578082015181840152602081019050610882565b50505050905090810190601f1680156108ca5780820380516001836020036101000a031916815260200191505b509250505060405180910390f35b6108e0611600565b6040518080602001828103825283818151815260200191508051906020019080838360005b83811015610920578082015181840152602081019050610905565b50505050905090810190601f16801561094d5780820380516001836020036101000a031916815260200191505b509250505060405180910390f35b610963611620565b6040518080602001828103825283818151815260200191508051906020019080838360005b838110156109a3578082015181840152602081019050610988565b50505050905090810190601f1680156109d05780820380516001836020036101000a031916815260200191505b509250505060405180910390f35b610a40600480360360408110156109f457600080fd5b81019080803573ffffffffffffffffffffffffffffffffffffffff169060200190929190803573ffffffffffffffffffffffffffffffffffffffff169060200190929190505050611640565b604051808215151515815260200191505060405180910390f35b6000806000837bffffffffffffffffffffffffffffffffffffffffffffffffffffffff19167bffffffffffffffffffffffffffffffffffffffffffffffffffffffff1916815260200190815260200160002060009054906101000a900460ff169050919050565b606060068054600181600116156101000203166002900480601f016020809104026020016040519081016040528092919081815260200182805460018160011615610100020316600290048015610b595780601f10610b2e57610100808354040283529160200191610b59565b820191906000526020600020905b815481529060010190602001808311610b3c57829003601f168201915b5050505050905090565b6000610b6e826116d4565b610bc3576040517f08c379a000000000000000000000000000000000000000000000000000000000815260040180806020018281038252602c815260200180612b5b602c913960400191505060405180910390fd5b6004600083815260200190815260200160002060009054906101000a900473ffffffffffffffffffffffffffffffffffffffff169050919050565b6000610c0982610e75565b90508073ffffffffffffffffffffffffffffffffffffffff168373ffffffffffffffffffffffffffffffffffffffff161415610c90576040517f08c379a0000000000000000000000000000000000000000000000000000000008152600401808060200182810382526021815260200180612bdf6021913960400191505060405180910390fd5b8073ffffffffffffffffffffffffffffffffffffffff16610caf6116f1565b73ffffffffffffffffffffffffffffffffffffffff161480610cde5750610cdd81610cd86116f1565b611640565b5b610d33576040517f08c379a0000000000000000000000000000000000000000000000000000000008152600401808060200182810382526038815260200180612aae6038913960400191505060405180910390fd5b610d3d83836116f9565b505050565b6000610d4e60026117b2565b905090565b610d64610d5e6116f1565b826117c7565b610db9576040517f08c379a0000000000000000000000000000000000000000000000000000000008152600401808060200182810382526031815260200180612c416031913960400191505060405180910390fd5b610dc48383836118bb565b505050565b6000610e1c82600160008673ffffffffffffffffffffffffffffffffffffffff1673ffffffffffffffffffffffffffffffffffffffff168152602001908152602001600020611afe90919063ffffffff16565b905092915050565b610e2e8282611b18565b5050565b610e4d8383836040518060200160405280600081525061129f565b505050565b600080610e69836002611d0c90919063ffffffff16565b50905080915050919050565b6000610ea582604051806060016040528060298152602001612b10602991396002611d3b9092919063ffffffff16565b9050919050565b606060098054600181600116156101000203166002900480601f016020809104026020016040519081016040528092919081815260200182805460018160011615610100020316600290048015610f445780601f10610f1957610100808354040283529160200191610f44565b820191906000526020600020905b815481529060010190602001808311610f2757829003601f168201915b5050505050905090565b60008073ffffffffffffffffffffffffffffffffffffffff168273ffffffffffffffffffffffffffffffffffffffff161415610fd5576040517f08c379a000000000000000000000000000000000000000000000000000000000815260040180806020018281038252602a815260200180612ae6602a913960400191505060405180910390fd5b61101c600160008473ffffffffffffffffffffffffffffffffffffffff1673ffffffffffffffffffffffffffffffffffffffff168152602001908152602001600020611d5a565b9050919050565b600061102d611d6f565b90506110398282610e24565b611041611d8c565b5050565b606060078054600181600116156101000203166002900480601f0160208091040260200160405190810160405280929190818152602001828054600181600116156101000203166002900480156110dd5780601f106110b2576101008083540402835291602001916110dd565b820191906000526020600020905b8154815290600101906020018083116110c057829003601f168201915b5050505050905090565b6110ef6116f1565b73ffffffffffffffffffffffffffffffffffffffff168273ffffffffffffffffffffffffffffffffffffffff161415611190576040517f08c379a00000000000000000000000000000000000000000000000000000000081526004018080602001828103825260198152602001807f4552433732313a20617070726f766520746f2063616c6c65720000000000000081525060200191505060405180910390fd5b806005600061119d6116f1565b73ffffffffffffffffffffffffffffffffffffffff1673ffffffffffffffffffffffffffffffffffffffff16815260200190815260200160002060008473ffffffffffffffffffffffffffffffffffffffff1673ffffffffffffffffffffffffffffffffffffffff16815260200190815260200160002060006101000a81548160ff0219169083151502179055508173ffffffffffffffffffffffffffffffffffffffff1661124a6116f1565b73ffffffffffffffffffffffffffffffffffffffff167f17307eab39ab6107e8899845ad3d59bd9653f200f220920489ca2b5937696c3183604051808215151515815260200191505060405180910390a35050565b6112b06112aa6116f1565b836117c7565b611305576040517f08c379a0000000000000000000000000000000000000000000000000000000008152600401808060200182810382526031815260200180612c416031913960400191505060405180910390fd5b61131184848484611da0565b50505050565b6060611322826116d4565b611377576040517f08c379a000000000000000000000000000000000000000000000000000000000815260040180806020018281038252602f815260200180612bb0602f913960400191505060405180910390fd5b6060600860008481526020019081526020016000208054600181600116156101000203166002900480601f0160208091040260200160405190810160405280929190818152602001828054600181600116156101000203166002900480156114205780601f106113f557610100808354040283529160200191611420565b820191906000526020600020905b81548152906001019060200180831161140357829003601f168201915b5050505050905060006009805460018160011615610100020316600290049050141561144f57809150506115fb565b6000815111156115285760098160405160200180838054600181600116156101000203166002900480156114ba5780601f106114985761010080835404028352918201916114ba565b820191906000526020600020905b8154815290600101906020018083116114a6575b505082805190602001908083835b602083106114eb57805182526020820191506020810190506020830392506114c8565b6001836020036101000a038019825116818451168082178552505050505050905001925050506040516020818303038152906040529150506115fb565b600961153384611e12565b60405160200180838054600181600116156101000203166002900480156115915780601f1061156f576101008083540402835291820191611591565b820191906000526020600020905b81548152906001019060200180831161157d575b505082805190602001908083835b602083106115c2578051825260208201915060208101905060208303925061159f565b6001836020036101000a038019825116818451168082178552505050505050905001925050506040516020818303038152906040529150505b919050565b6060604051806080016040528060418152602001612c0060419139905090565b6060604051806080016040528060448152602001612a1a60449139905090565b6000600560008473ffffffffffffffffffffffffffffffffffffffff1673ffffffffffffffffffffffffffffffffffffffff16815260200190815260200160002060008373ffffffffffffffffffffffffffffffffffffffff1673ffffffffffffffffffffffffffffffffffffffff16815260200190815260200160002060009054906101000a900460ff16905092915050565b60006116ea826002611f5990919063ffffffff16565b9050919050565b600033905090565b816004600083815260200190815260200160002060006101000a81548173ffffffffffffffffffffffffffffffffffffffff021916908373ffffffffffffffffffffffffffffffffffffffff160217905550808273ffffffffffffffffffffffffffffffffffffffff1661176c83610e75565b73ffffffffffffffffffffffffffffffffffffffff167f8c5be1e5ebec7d5bd14f71427d1e84f3dd0314c0f7b2291e5b200ac8c7c3b92560405160405180910390a45050565b60006117c082600001611f73565b9050919050565b60006117d2826116d4565b611827576040517f08c379a000000000000000000000000000000000000000000000000000000000815260040180806020018281038252602c815260200180612a82602c913960400191505060405180910390fd5b600061183283610e75565b90508073ffffffffffffffffffffffffffffffffffffffff168473ffffffffffffffffffffffffffffffffffffffff1614806118a157508373ffffffffffffffffffffffffffffffffffffffff1661188984610b63565b73ffffffffffffffffffffffffffffffffffffffff16145b806118b257506118b18185611640565b5b91505092915050565b8273ffffffffffffffffffffffffffffffffffffffff166118db82610e75565b73ffffffffffffffffffffffffffffffffffffffff1614611947576040517f08c379a0000000000000000000000000000000000000000000000000000000008152600401808060200182810382526029815260200180612b876029913960400191505060405180910390fd5b600073ffffffffffffffffffffffffffffffffffffffff168273ffffffffffffffffffffffffffffffffffffffff1614156119cd576040517f08c379a0000000000000000000000000000000000000000000000000000000008152600401808060200182810382526024815260200180612a5e6024913960400191505060405180910390fd5b6119d8838383611f84565b6119e36000826116f9565b611a3481600160008673ffffffffffffffffffffffffffffffffffffffff1673ffffffffffffffffffffffffffffffffffffffff168152602001908152602001600020611f8990919063ffffffff16565b50611a8681600160008573ffffffffffffffffffffffffffffffffffffffff1673ffffffffffffffffffffffffffffffffffffffff168152602001908152602001600020611fa390919063ffffffff16565b50611a9d81836002611fbd9092919063ffffffff16565b50808273ffffffffffffffffffffffffffffffffffffffff168473ffffffffffffffffffffffffffffffffffffffff167fddf252ad1be2c89b69c2b068fc378daa952ba7f163c4a11628f55a4df523b3ef60405160405180910390a4505050565b6000611b0d8360000183611ff2565b60001c905092915050565b600073ffffffffffffffffffffffffffffffffffffffff168273ffffffffffffffffffffffffffffffffffffffff161415611bbb576040517f08c379a00000000000000000000000000000000000000000000000000000000081526004018080602001828103825260208152602001807f4552433732313a206d696e7420746f20746865207a65726f206164647265737381525060200191505060405180910390fd5b611bc4816116d4565b15611c37576040517f08c379a000000000000000000000000000000000000000000000000000000000815260040180806020018281038252601c8152602001807f4552433732313a20746f6b656e20616c7265616479206d696e7465640000000081525060200191505060405180910390fd5b611c4360008383611f84565b611c9481600160008573ffffffffffffffffffffffffffffffffffffffff1673ffffffffffffffffffffffffffffffffffffffff168152602001908152602001600020611fa390919063ffffffff16565b50611cab81836002611fbd9092919063ffffffff16565b50808273ffffffffffffffffffffffffffffffffffffffff16600073ffffffffffffffffffffffffffffffffffffffff167fddf252ad1be2c89b69c2b068fc378daa952ba7f163c4a11628f55a4df523b3ef60405160405180910390a45050565b600080600080611d1f8660000186612075565b915091508160001c8160001c8090509350935050509250929050565b6000611d4e846000018460001b8461210e565b60001c90509392505050565b6000611d6882600001612204565b9050919050565b6000611d876001600a5461221590919063ffffffff16565b905090565b600a60008154809291906001019190505550565b611dab8484846118bb565b611db78484848461229d565b611e0c576040517f08c379a00000000000000000000000000000000000000000000000000000000081526004018080602001828103825260328152602001806129e86032913960400191505060405180910390fd5b50505050565b60606000821415611e5a576040518060400160405280600181526020017f30000000000000000000000000000000000000000000000000000000000000008152509050611f54565b600082905060005b60008214611e84578080600101915050600a8281611e7c57fe5b049150611e62565b60608167ffffffffffffffff81118015611e9d57600080fd5b506040519080825280601f01601f191660200182016040528015611ed05781602001600182028036833780820191505090505b50905060006001830390508593505b60008414611f4c57600a8481611ef157fe5b0660300160f81b82828060019003935081518110611f0b57fe5b60200101907effffffffffffffffffffffffffffffffffffffffffffffffffffffffffffff1916908160001a905350600a8481611f4457fe5b049350611edf565b819450505050505b919050565b6000611f6b836000018360001b6124e2565b905092915050565b600081600001805490509050919050565b505050565b6000611f9b836000018360001b612505565b905092915050565b6000611fb5836000018360001b6125ed565b905092915050565b6000611fe9846000018460001b8473ffffffffffffffffffffffffffffffffffffffff1660001b61265d565b90509392505050565b600081836000018054905011612053576040517f08c379a00000000000000000000000000000000000000000000000000000000081526004018080602001828103825260228152602001806129c66022913960400191505060405180910390fd5b82600001828154811061206257fe5b9060005260206000200154905092915050565b600080828460000180549050116120d7576040517f08c379a0000000000000000000000000000000000000000000000000000000008152600401808060200182810382526022815260200180612b396022913960400191505060405180910390fd5b60008460000184815481106120e857fe5b906000526020600020906002020190508060000154816001015492509250509250929050565b600080846001016000858152602001908152602001600020549050600081141583906121d5576040517f08c379a00000000000000000000000000000000000000000000000000000000081526004018080602001828103825283818151815260200191508051906020019080838360005b8381101561219a57808201518184015260208101905061217f565b50505050905090810190601f1680156121c75780820380516001836020036101000a031916815260200191505b509250505060405180910390fd5b508460000160018203815481106121e857fe5b9060005260206000209060020201600101549150509392505050565b600081600001805490509050919050565b600080828401905083811015612293576040517f08c379a000000000000000000000000000000000000000000000000000000000815260040180806020018281038252601b8152602001807f536166654d6174683a206164646974696f6e206f766572666c6f77000000000081525060200191505060405180910390fd5b8091505092915050565b60006122be8473ffffffffffffffffffffffffffffffffffffffff16612739565b6122cb57600190506124da565b606061246163150b7a0260e01b6122e06116f1565b888787604051602401808573ffffffffffffffffffffffffffffffffffffffff1673ffffffffffffffffffffffffffffffffffffffff1681526020018473ffffffffffffffffffffffffffffffffffffffff1673ffffffffffffffffffffffffffffffffffffffff16815260200183815260200180602001828103825283818151815260200191508051906020019080838360005b83811015612390578082015181840152602081019050612375565b50505050905090810190601f1680156123bd5780820380516001836020036101000a031916815260200191505b5095505050505050604051602081830303815290604052907bffffffffffffffffffffffffffffffffffffffffffffffffffffffff19166020820180517bffffffffffffffffffffffffffffffffffffffffffffffffffffffff83818316178352505050506040518060600160405280603281526020016129e8603291398773ffffffffffffffffffffffffffffffffffffffff166127849092919063ffffffff16565b9050600081806020019051602081101561247a57600080fd5b8101908080519060200190929190505050905063150b7a0260e01b7bffffffffffffffffffffffffffffffffffffffffffffffffffffffff1916817bffffffffffffffffffffffffffffffffffffffffffffffffffffffff191614925050505b949350505050565b600080836001016000848152602001908152602001600020541415905092915050565b600080836001016000848152602001908152602001600020549050600081146125e1576000600182039050600060018660000180549050039050600086600001828154811061255057fe5b906000526020600020015490508087600001848154811061256d57fe5b90600052602060002001819055506001830187600101600083815260200190815260200160002081905550866000018054806125a557fe5b600190038181906000526020600020016000905590558660010160008781526020019081526020016000206000905560019450505050506125e7565b60009150505b92915050565b60006125f9838361279c565b612652578260000182908060018154018082558091505060019003906000526020600020016000909190919091505582600001805490508360010160008481526020019081526020016000208190555060019050612657565b600090505b92915050565b600080846001016000858152602001908152602001600020549050600081141561270457846000016040518060400160405280868152602001858152509080600181540180825580915050600190039060005260206000209060020201600090919091909150600082015181600001556020820151816001015550508460000180549050856001016000868152602001908152602001600020819055506001915050612732565b8285600001600183038154811061271757fe5b90600052602060002090600202016001018190555060009150505b9392505050565b60008060007fc5d2460186f7233c927e7db2dcc703c0e500b653ca82273b7bfad8045d85a47060001b9050833f915080821415801561277b57506000801b8214155b92505050919050565b606061279384846000856127bf565b90509392505050565b600080836001016000848152602001908152602001600020541415905092915050565b60606127ca85612739565b61283c576040517f08c379a000000000000000000000000000000000000000000000000000000000815260040180806020018281038252601d8152602001807f416464726573733a2063616c6c20746f206e6f6e2d636f6e747261637400000081525060200191505060405180910390fd5b600060608673ffffffffffffffffffffffffffffffffffffffff1685876040518082805190602001908083835b6020831061288c5780518252602082019150602081019050602083039250612869565b6001836020036101000a03801982511681845116808217855250505050505090500191505060006040518083038185875af1925050503d80600081146128ee576040519150601f19603f3d011682016040523d82523d6000602084013e6128f3565b606091505b509150915081156129085780925050506129bd565b60008151111561291b5780518082602001fd5b836040517f08c379a00000000000000000000000000000000000000000000000000000000081526004018080602001828103825283818151815260200191508051906020019080838360005b83811015612982578082015181840152602081019050612967565b50505050905090810190601f1680156129af5780820380516001836020036101000a031916815260200191505b509250505060405180910390fd5b94935050505056fe456e756d657261626c655365743a20696e646578206f7574206f6620626f756e64734552433732313a207472616e7366657220746f206e6f6e20455243373231526563656976657220696d706c656d656e74657268747470733a2f2f706f77657266756c2d6f617369732d34383133342e6865726f6b756170702e636f6d2f44657257616e64657265722f6170692f636f6e74726163742f4552433732313a207472616e7366657220746f20746865207a65726f20616464726573734552433732313a206f70657261746f7220717565727920666f72206e6f6e6578697374656e7420746f6b656e4552433732313a20617070726f76652063616c6c6572206973206e6f74206f776e6572206e6f7220617070726f76656420666f7220616c6c4552433732313a2062616c616e636520717565727920666f7220746865207a65726f20616464726573734552433732313a206f776e657220717565727920666f72206e6f6e6578697374656e7420746f6b656e456e756d657261626c654d61703a20696e646578206f7574206f6620626f756e64734552433732313a20617070726f76656420717565727920666f72206e6f6e6578697374656e7420746f6b656e4552433732313a207472616e73666572206f6620746f6b656e2074686174206973206e6f74206f776e4552433732314d657461646174613a2055524920717565727920666f72206e6f6e6578697374656e7420746f6b656e4552433732313a20617070726f76616c20746f2063757272656e74206f776e657268747470733a2f2f706f77657266756c2d6f617369732d34383133342e6865726f6b756170702e636f6d2f44657257616e64657265722f6170692f61737365742f4552433732313a207472616e736665722063616c6c6572206973206e6f74206f776e6572206e6f7220617070726f766564a264697066735822122046e80ddd864cd63c4e82dd35d0420ca5faf3e3895aa8775ec5551b67d8508f0364736f6c634300060b0033",
  "immutableReferences": {},
  "source": "// SPDX-License-Identifier: MIT\n\npragma solidity >=0.4.21 <0.7.0;\n\nimport \"../node_modules/@openzeppelin/contracts/token/ERC721/ERC721.sol\";\n\n\ncontract DerWanderer is ERC721 {\n\n  uint256 private _currentTokenId = 0;\n\n    constructor() ERC721(\"DerWanderer\", \"ETH\") public {}\n\n\n  function mintTo(address _to) public { //set the onlyOwner modifier\n    uint256 newTokenId = _getNextTokenId();\n    mint(_to, newTokenId);\n    _incrementTokenId();\n  }\n\n  function _getNextTokenId() private view returns (uint256) {\n    return _currentTokenId.add(1);\n  }\n\n    function mint(address  _to, uint256 _tokenId) public {\n        _mint(_to, _tokenId);\n    }\n\n     function _incrementTokenId() private  {\n    _currentTokenId++;\n  }\n\n    function baseTokenURI() public pure returns (string memory) {\n        //lien de la metadata\n    return \"https://powerful-oasis-48134.herokuapp.com/DerWanderer/api/asset/\";\n  }\n\n  function contractURI() public pure returns (string memory) {\n        //lien de la metadata\n    return \"https://powerful-oasis-48134.herokuapp.com/DerWanderer/api/contract/\";\n  }\n}\n",
  "sourcePath": "/home/th0t-nz1g/coding/Blockchain/Dapps/Work/derwanderer/WandererScratch/contracts/DerWanderer.sol",
  "compiler": {
    "name": "solc",
    "version": "0.6.11+commit.5ef660b1.Emscripten.clang"
  },
  "schemaVersion": "3.2.0",
  "updatedAt": "2020-07-21T11:13:56.566Z",
  "networkType": "ethereum",
  "devdoc": {
    "kind": "dev",
    "methods": {
      "approve(address,uint256)": {
        "details": "See {IERC721-approve}."
      },
      "balanceOf(address)": {
        "details": "See {IERC721-balanceOf}."
      },
      "baseURI()": {
        "details": "Returns the base URI set via {_setBaseURI}. This will be automatically added as a prefix in {tokenURI} to each token's URI, or to the token ID if no specific URI is set for that token ID."
      },
      "getApproved(uint256)": {
        "details": "See {IERC721-getApproved}."
      },
      "isApprovedForAll(address,address)": {
        "details": "See {IERC721-isApprovedForAll}."
      },
      "name()": {
        "details": "See {IERC721Metadata-name}."
      },
      "ownerOf(uint256)": {
        "details": "See {IERC721-ownerOf}."
      },
      "safeTransferFrom(address,address,uint256)": {
        "details": "See {IERC721-safeTransferFrom}."
      },
      "safeTransferFrom(address,address,uint256,bytes)": {
        "details": "See {IERC721-safeTransferFrom}."
      },
      "setApprovalForAll(address,bool)": {
        "details": "See {IERC721-setApprovalForAll}."
      },
      "supportsInterface(bytes4)": {
        "details": "See {IERC165-supportsInterface}. Time complexity O(1), guaranteed to always use less than 30 000 gas."
      },
      "symbol()": {
        "details": "See {IERC721Metadata-symbol}."
      },
      "tokenByIndex(uint256)": {
        "details": "See {IERC721Enumerable-tokenByIndex}."
      },
      "tokenOfOwnerByIndex(address,uint256)": {
        "details": "See {IERC721Enumerable-tokenOfOwnerByIndex}."
      },
      "tokenURI(uint256)": {
        "details": "See {IERC721Metadata-tokenURI}."
      },
      "totalSupply()": {
        "details": "See {IERC721Enumerable-totalSupply}."
      },
      "transferFrom(address,address,uint256)": {
        "details": "See {IERC721-transferFrom}."
      }
    },
    "version": 1
  },
  "userdoc": {
    "kind": "user",
    "methods": {},
    "version": 1
  }
}